:020000040000FA
:030000000200E318
:03002B000204FECE
:030033000204A71D
:03006B000203E1AC
:03007B0002043A42
:100083000203A900000080FB120113B90003020060
:10009300CDE4900101783179028002F0A3D8FCD934
:1000A300FA900231AA82AB83900116781C79018001
:1000B30015E493A3AC82AD838A828B83F0A3AA82D7
:1000C300AB838C828D83D8E9D9E77582AC75830ABB
:1000D30074001200F575828675830074001200F5B2
:1000E30075D0007581BF751001751101759F0002F0
:1000F300008BC09FF59FE473D09F22D083D082C032
:100103009FE493C0E0740193C0E0740293F59F22CF
:10011300790122FF000000000000000000000049F8
:10012300013132330D0A000000000000010012000B
:10013300FE0F05001200FEF805001200FE7906000E
:100143001200FE9D07001200FED107001200FEFA06
:1001530007001200FE1E08001200FE4B08001200EA
:10016300FE7208001200FEC308001200FEEE080033
:100173001200FE1709001200FE2F09001200FE3FB5
:1001830009001200FE4F09001200FE66090012006A
:10019300FE7809001200FE8A09001200FE9E090083
:1001A3001200FEFA09001200FE090B001200FE7A8B
:1001B3000B006016080808C6C313C618C613C61872
:1001C300C613C618C613C6D5E0EA22700908080884
:1001D300226016181818C6C333C608C633C608C625
:1001E30033C608C633C6D5E0EA22E026F608A3E004
:1001F30036F608A3E036F608A3E036F622E647F61D
:100203000809E647F60809E647F60809E647F6222D
:10021300E0FAA3E0FBA3E0FCA3E0FD22EAF0A3EBFA
:10022300F0A3ECF0A3EDF022700422600D18C6C316
:1002330033C608C633C6D5E0F41822E4732510C5C7
:1002430082C0E0E51134FFC583C0E0E510C39582A9
:1002530024F810AF088583118582108008858311E7
:10026300858210D2AFCEF0A3E520F0A37808E6088C
:10027300F0A3DEFAEFF0A3E58124FAF8E608F0A391
:10028300E608F0A3E608F0A30808E608F0A3E608EA
:10029300F0A315811581D0E0FED0E0F8158115811A
:1002A3001581E8C0E0EEC0E022851183851082E06D
:1002B300A3FEE0A3F5207808E0A3F608DFFAE0A3A5
:1002C300FFE0A3C0E0E0A3C0E0E0A3C0E0E0A3C080
:1002D300E0E0A3C0E010AF08858210858311800899
:1002E300858210858311D2AFD083D0820200FBC0F8
:1002F300D02510C582C0E0E51134FFC583C0E0E519
:1003030010C3958224F310AF088583118582108072
:1003130008858311858210D2AFC8F0A3E9F0A3EA60
:10032300F0A3EBF0A37908E709F0A3D8FAECF0A364
:10033300EDF0A3EEF0A3EFF0A3D0E0F0A3D0E0F054
:10034300A3D0E0F0A3E520F0A3E5F0F0A32285110C
:1003530083851082E0C0E0A3E0F9A3E0FAA3E0FB09
:10036300A37808E0F608A3DFFAE0FCA3E0FDA3E02E
:10037300FEA3E0FFA3E0C0E0A3E0C0E0A3E0F5D06C
:10038300A3E0F520A3E0A3F5F010AF088583118562
:1003930082108008858311858210D2AFD082D083EA
:1003A300D0E0F8D0E032C0E074F21202F2A2AFE47F
:1003B30033FEC2AFE5E9A2E6501A9001FDE0F8A3CF
:1003C300E0F9E8496008E0F583888212023E759BF4
:1003D3000053E9BFEEA2E092AF7F01020351C0E0F8
:1003E30074F11202F2C2C5E58960477E0075080107
:1003F300750900EE780812022BAF08E5895F602BC0
:10040300EEC333F8E433F974FF28F5827401120460
:10041300906014EEC333F8E433F974FF28F5827463
:100423000112049B12023EEFF452890EEEC39408AC
:1004330040BB7F02020351C0E074F11202F2C2EB2F
:10044300E58A60477E00750801750900EE78081299
:10045300022BAF08E58A5F602BEEC333F8E433F970
:10046300740F28F58274021204906014EEC333F8FB
:10047300E433F9740F28F582740212049B12023ECE
:10048300EFF4528A0EEEC3940840BB80A539F5837E
:10049300E0F8A3E0F9E8492239F583E0F8A3E0F5B1
:1004A30083888222C0E074F11202F2C2E8E58B6015
:1004B300477E00750801750900EE780812022BAF1C
:1004C30008E58B5F602BEEC333F8E433F9741F2820
:1004D300F58274021204906014EEC333F8E433F926
:1004E300741F28F582740212049B12023EEFF45229
:1004F3008B0EEEC3940540BB020435C0E074F212C8
:1005030002F2C2C779041201AF0203DCC082C083C6
:10051300120179D2AF79017A7D7B011201739001C7
:100523007DE0C2E7F06405703579051205EA5004F1
:10053300D2F08002C2F0A2F0E433900239F09001CD
:1005430082E0A2E740030205E2900180E0F8900117
:1005530001E06860030205E2A374010205E1E024FF
:10056300F5900236F090017DE0F91205EA5004D2CD
:10057300F08002C2F0A2F0E433900239F0900185DA
:10058300E0F8A3E0F9900232E8F0A3E9F090023733
:100593007487F0A37401F0900236E0F83395E0F924
:1005A300748728F8740139F988828983E090023AC4
:1005B300F088828983A3E0A2E7501C900231E0F81F
:1005C300900180E068601090017EE054DF64417028
:1005D3000690023B7401F0900180E0900231F0C27A
:1005E300AF12017F0208E77A7E7B0112017390014B
:1005F3007EE0A2E52274F7120240EAFEEBFF12014D
:1006030061E96401700479018067C2AF900108EE6B
:10061300F0A3EFF0900237E4F0A3F090010304F0AD
:1006230090024412021390010412021F75F0051286
:10063300078DE0A424D490618FF090010912076F15
:10064300E8906174F0E9A3F0900108E0F8A31207C1
:100653007AE8906172F0E9A3F0E5A8F8C2AF9001DF
:10066300FD7431F0A37401F0E8A2E792AFD2AF7941
:10067300007F010202AC74F5120240EAFEEBFF8C2C
:10068300088D09890A900103E0700675E1EC75E1B4
:10069300E3E9C394674003750A67906193E05422CA
:1006A30070F8120179740B250A90010AF01207877A
:1006B30090010B6004746180027441F0A37488F0AC
:1006C300900101E090010DF090010912077A900169
:1006D3000EE8F0A3E9F0A3EEF0A3EFF0900108E039
:1006E300F8A312076F900112E8F0A3E9F07A0080F3
:1006F300218A82A882E50828F582E5093400F5837A
:10070300E0C0E0741428F58274013400F583D0E06E
:10071300F00AEAC3950A40D9740A250AF97A0A7BD2
:100723000112016D12017F75E1E9E591A2E150FA31
:100733007591FD1207876012900102E4F07A4A7BFB
:1007430002120155900102E06004790080027901F0
:10075300900103E0700675E1EF75E1ECE9A2E0407A
:1007630006900101E004F07F030202ACE0F5838808
:1007730082E0F8A3E0F922E0F5838882A3A3E0F8FE
:10078300A3E0F92212078DA3E022900108E0F8A369
:10079300E0F5838882A3A3A3A322E5C65480F8537C
:1007A300BEFBE59DA2E550FAE59DA2E240F400748C
:1007B30001697007744948F5C68005E9700288C667
:1007C300E5C6F8E59E6870FB43BE040200FBE9F84A
:1007D300E59EA2E640047901801AE8700553C67FBE
:1007E3008008740168700343C680E5C6F9E59E6915
:1007F30070FB79000200FBC082C0837900120149BB
:10080300E9601079011201437900120149E960039B
:1008130012018579001201430208E7EBC313FBEAD7
:1008230013FAEAF8EBF9E824FFFAE934FFFBE849A5
:100833006013000000000000000000000000000042
:1008430000000080DD0200FB74F7120240EAFEEBB9
:10085300FFEEF8EFF9E824FFFEE934FFFFE8496013
:10086300097AE87B0312015580E77F010202ACC0DD
:1008730082C083906189E04460F09061FA7409F06A
:100883009061B27415F09061AEE4F090023EE060C6
:10089300289061B27415F09061AEE4F09061EB744E
:1008A30068F0A3746AF090624474FBF090624304AE
:1008B300F043FD80790112016712017F79008024E2
:1008C300C082C083E9700FC2877408001470FC9063
:1008D300023D7443800DD2877408001470FC9002AB
:1008E3003D744FF0D083D0820200FB74F6120240B5
:1008F30075E1EE7591FD780080108808EA2508F50A
:1009030082EB3400F583E0F5D908E8C39940EB7F27
:10091300020202ACC082C083800DE5D98A828B8338
:10092300F0A3AA82AB8319E970F080B8C082C083B8
:100933009061A3E0C2E6F0539AFE80A8C082C08310
:100943009061A3E0D2E6F0439A018098C082C0830D
:10095300790112019779021201977A327B00120111
:100963005B80EDE91460051460068006D284800282
:10097300D2800200FBE91460051460068006C2847D
:100983008002C2800200FBE914600514600780083E
:1009930063801080036380010200FB74F71202403E
:1009A300E9FE900229700874EFF0A374BE80067408
:1009B30020F0A37425F0A37407F0A37420F0A374AC
:1009C3000BF0A37401F07A297B02120137E9640169
:1009D300700312018590619074F5F0EE900103703D
:1009E3000B7401F075E1EC75E1E38008E4F075E167
:1009F300EF75E1EC02067474F012024079057C3F56
:100A03007D027AEF7BBE12013DE9701190022FE067
:100A13002401F0A3E03400F079011201917AF47B10
:100A23000112015B790112018BC291C290C287E569
:100A330095F50CE596F508E4F50DF50EF50FF509BA
:100A4300F50AF50B740878081201CE780C790812B0
:100A53000200859708E4F509741078081201CE782E
:100A63000C7908120200900248780C1201ED850CF3
:100A730008850D09850E0A850F0B7410780812017D
:100A8300B5E508F597850D09E509F596E50CF595A6
:100A930079021201AF12014F7A057B0012015B79D3
:100AA3000112019D7F080202AC12014F43FD10D2D7
:100AB3008443FD01D28053F3DF53FDDF438F207561
:100AC300FDDF75FE0375FF00D284D280D2AF759728
:100AD30000759600759500D2ADC2C7D2AF12016101
:100AE300E964017003120185790112019D1201A9C4
:100AF300E97005790212019175FD9175FE0375FF89
:100B0300001201A380FB7B00D281D282D283D286E2
:100B1300EB601514600E14600714700EC286800A11
:100B2300C2838006C2828002C281A293E433FAA206
:100B330096E433F9A297E433F8A2A0E43328292AF0
:100B43006403702AEB601C14601514600C14701E8F
:100B5300A293501379000200FBA29640F78008A2EB
:100B63009780F8A2A040ED0BEBC39404409A740461
:100B73006B70E1790180DFE9C394045008E942BE58
:0B0B830075870180037587000200FBEE
:04000005000000E314
:00000001FF
