:020000040000FA
:030000000200E318
:03002B0002048349
:0300330002042C98
:03006B0002036627
:03007B000203BFBE
:1000830002032E00000080FB120113B900030200DB
:10009300CDE4900101783179028002F0A3D8FCD934
:1000A300FA900231AA82AB83900116781779018006
:1000B30015E493A3AC82AD838A828B83F0A3AA82D7
:1000C300AB838C828D83D8E9D9E77582BE758308AB
:1000D30074001200F575828675830074001200F5B2
:1000E30075D0007581BF751001751101759F0002F0
:1000F300008BC09FF59FE473D09F22D083D082C032
:100103009FE493C0E0740193C0E0740293F59F22CF
:10011300790122FF00000000000000000000000140
:100123003132330D0A000000001200FE9404001265
:1001330000FE7D05001200FEFE05001200FE2207F0
:10014300001200FE5607001200FE7F07001200FE99
:10015300AC07001200FED307001200FE1B080012BA
:1001630000FE4408001200FE6108001200FE710840
:10017300001200FE8108001200FE9808001200FE23
:10018300AA08001200FE8209001200FEDA0900121A
:1001930000FE560A00E0FAA3E0FBA3E0FCA3E0FDA7
:1001A30022EAF0A3EBF0A3ECF0A3EDF0227004221B
:1001B300600D18C6C333C608C633C6D5E0F418228B
:1001C300E4732510C582C0E0E51134FFC583C0E0A8
:1001D300E510C3958224F810AF088583118582103A
:1001E3008008858311858210D2AFCEF0A3E520F07D
:1001F300A37808E608F0A3DEFAEFF0A3E58124FA7A
:10020300F8E608F0A3E608F0A3E608F0A30808E67A
:1002130008F0A3E608F0A315811581D0E0FED0E035
:10022300F8158115811581E8C0E0EEC0E022851143
:1002330083851082E0A3FEE0A3F5207808E0A3F60F
:1002430008DFFAE0A3FFE0A3C0E0E0A3C0E0E0A37F
:10025300C0E0E0A3C0E0E0A3C0E010AF08858210D7
:100263008583118008858210858311D2AFD083D016
:10027300820200FBC0D02510C582C0E0E51134FF27
:10028300C583C0E0E510C3958224F310AF088583CE
:10029300118582108008858311858210D2AFC8F042
:1002A300A3E9F0A3EAF0A3EBF0A37908E709F0A32D
:1002B300D8FAECF0A3EDF0A3EEF0A3EFF0A3D0E0B7
:1002C300F0A3D0E0F0A3D0E0F0A3E520F0A3E5F0A5
:1002D300F0A322851183851082E0C0E0A3E0F9A397
:1002E300E0FAA3E0FBA37808E0F608A3DFFAE0FC5A
:1002F300A3E0FDA3E0FEA3E0FFA3E0C0E0A3E0C012
:10030300E0A3E0F5D0A3E0F520A3E0A3F5F010AF60
:10031300088583118582108008858311858210D218
:10032300AFD082D083D0E0F8D0E032C0E074F212D4
:100333000277A2AFE433FEC2AFE5E9A2E6501A901A
:1003430001FDE0F8A3E0F9E8496008E0F58388825D
:100353001201C3759B0053E9BFEEA2E092AF7F0188
:100363000202D6C0E074F1120277C2C5E589604784
:100373007E00750801750900EE78081201B0AF0818
:10038300E5895F602BEEC333F8E433F974FF28F596
:100393008274011204156014EEC333F8E433F97464
:1003A300FF28F58274011204201201C3EFF452896D
:1003B3000EEEC3940840BB7F020202D6C0E074F184
:1003C300120277C2EBE58A60477E00750801750962
:1003D30000EE78081201B0AF08E58A5F602BEEC328
:1003E30033F8E433F9740F28F582740212041560AC
:1003F30014EEC333F8E433F9740F28F58274021250
:1004030004201201C3EFF4528A0EEEC3940840BBDA
:1004130080A539F583E0F8A3E0F9E8492239F583AB
:10042300E0F8A3E0F583888222C0E074F11202773A
:10043300C2E8E58B60477E00750801750900EE7818
:10044300081201B0AF08E58B5F602BEEC333F8E40D
:1004530033F9741F28F58274021204156014EEC375
:1004630033F8E433F9741F28F5827402120420125E
:1004730001C3EFF4528B0EEEC3940540BB0203BAE3
:10048300C0E074F2120277C2C77904120192020328
:1004930061C082C083120168D2AF79017A7D7B018A
:1004A30012016290017DE0C2E7F0640570357905C1
:1004B30012056F5004D2F08002C2F0A2F0E4339030
:1004C3000239F0900182E0A2E74003020567900140
:1004D30080E0F8900101E0686003020567A37401FE
:1004E300020566E024F5900236F090017DE0F912F2
:1004F300056F5004D2F08002C2F0A2F0E433900200
:1005030039F0900185E0F8A3E0F9900232E8F0A316
:10051300E9F09002377487F0A37401F0900236E09B
:10052300F83395E0F9748728F8740139F9888289DA
:1005330083E090023AF088828983A3E0A2E7501C0B
:10054300900231E0F8900180E068601090017EE055
:1005530054DF6441700690023B7401F0900180E027
:10056300900231F0C2AF12016E02085A7A7E7B010B
:1005730012016290017EE0A2E52274F71201C5EA3E
:10058300FEEBFF120156E96401700479018067C232
:10059300AF900108EEF0A3EFF0900237E4F0A3F080
:1005A30090010304F0900243120198900104120198
:1005B300A475F005120712E0A424D490618FF09083
:1005C30001091206F4E8906174F0E9A3F0900108C0
:1005D300E0F8A31206FFE8906172F0E9A3F0E5A842
:1005E300F8C2AF9001FD742CF0A37401F0E8A2E708
:1005F30092AFD2AF79007F0102023174F51201C5C7
:10060300EAFEEBFF8C088D09890A900103E070066E
:1006130075E1EC75E1E3E9C394674003750A6790FC
:100623006193E0542270F8120168740B250A90015B
:100633000AF012070C90010B60047461800274418C
:10064300F0A37488F0900101E090010DF09001098E
:100653001206FF90010EE8F0A3E9F0A3EEF0A3EF7A
:10066300F0900108E0F8A31206F4900112E8F0A359
:10067300E9F07A0080218A82A882E50828F582E5DC
:10068300093400F583E0C0E0741428F58274013462
:1006930000F583D0E0F00AEAC3950A40D9740A252D
:1006A3000AF97A0A7B0112015C12016E75E1E9E530
:1006B30091A2E150FA7591FD12070C6012900102AC
:1006C300E4F07A4A7B0212014A900102E060047965
:1006D3000080027901900103E0700675E1EF75E196
:1006E300ECE9A2E04006900101E004F07F0302027E
:1006F30031E0F5838882E0F8A3E0F922E0F583880E
:1007030082A3A3E0F8A3E0F922120712A3E0229048
:100713000108E0F8A3E0F5838882A3A3A3A322E55D
:10072300C65480F853BEFBE59DA2E550FAE59DA2B1
:10073300E240F4007401697007744948F5C6800506
:10074300E9700288C6E5C6F8E59E6870FB43BE04FF
:100753000200FBE9F8E59EA2E640047901801AE86D
:10076300700553C67F8008740168700343C680E533
:10077300C6F9E59E6970FB79000200FBEBC313FB2E
:10078300EA13FAEAF8EBF9E824FFFAE934FFFBE8A5
:10079300496013000000000000000000000000009A
:1007A3000000000080DD0200FB74F71201C5EAFEC1
:1007B300EBFFEEF8EFF9E824FFFEE934FFFFE84929
:1007C30060097AE87B0312014A80E77F0102023164
:1007D300C082C083906189E04460F09061FA74093B
:1007E300F09061B27415F09061AEE4F090023DE0D8
:1007F300601F9061B27415F09061AEE4F09061EB0C
:100803007468F090624874FBF053F4EF43FE10D227
:100813009412016E7900803F74F61201C575E1EE02
:100823007591FD780080108808EA2508F582EB347D
:1008330000F583E0F5D908E8C39940EB7F02020293
:1008430031C082C083800DE5D98A828B83F0A3AA4D
:1008530082AB8319E970F0D083D0820200FBC0829F
:10086300C0839061A3E0C2E6F0539AFE80E9C082A0
:10087300C0839061A3E0D2E6F0439A0180D9C0829D
:10088300C083790112018079021201807A327B00E0
:1008930012015080EDE91460051460068006C284DD
:1008A3008002C2800200FBE914600514600780081F
:1008B30063801080036380010200FB79001201440E
:1008C300E96010790112013E7900120144E96003E5
:1008D300120174790012013E43FD10D28443FD01DD
:1008E300D28053F3DF53FDDF438F2075FDDF75FEA9
:1008F3003175FF00D284D280D2AF75970075960010
:10090300759500D2ADC2C7D2AF120156E96401702A
:10091300031201749002297420F0A37425F0A374C8
:1009230007F0A37420F0A37419F0A37401F07A29DB
:100933007B02120132E96401700312017490010316
:10094300E4F075E1EF75E1EC120186E970057902D7
:1009530012017A75FD1175FE3075FF0079057C3E35
:100963007D027AEF7BBE120138E970F090022FE02E
:100973002401F0A3E03400F0790112017A80DD74E0
:10098300F71201C57E00D281D282D283D286D2876A
:10099300D290EE602314601C14601514600E146072
:1009A30007147016C2908012C287800EC286800A16
:1009B300C2838006C2828002C281EEF912018CE9F1
:1009C30070070EEEC3940640BD74066E7004790181
:1009D300800279000205F974F71201C5E9FE790175
:1009E300C39407506BE5A0FFE590F8E590FAE59016
:1009F300FBE590FCA291E433FDECA2E2E433FCEBD3
:100A0300A2E3E433FBEAA2E6E433FAE8A2E7E43341
:100A1300F8EFA2E0E433282A2B2C2D64057031EE85
:100A2300601114601514601814601914601A1460AE
:100A33001B801DA2A04019198016A297401280F7AF
:100A4300A29680F8A29380F4A29280F0A29150E73C
:100A53000205F9E9C394045008E942BE7587018091
:070A6300037587000200FB90
:04000005000000E314
:00000001FF
