:020000040000FA
:030000000200E318
:03002B000204D5F7
:0300330002047E46
:03006B000203B8D5
:03007B000204116B
:1000830002038000000080FB120113B90003020089
:10009300CDE490010178DC79018002F0A3D8FCD98A
:1000A300FA9001DCAA82AB83900116781279018061
:1000B30015E493A3AC82AD838A828B83F0A3AA82D7
:1000C300AB838C828D83D8E9D9E7758276758308F3
:1000D30074001200F575828675830074001200F5B2
:1000E30075D0007581BF751001751101759F0002F0
:1000F300008BC09FF59FE473D09F22D083D082C032
:100103009FE493C0E0740193C0E0740293F59F22CF
:10011300790122FF00000000000000000000000140
:10012300000000001200FEE604001200FECF0500EE
:100133001200FE6606001200FE9A06001200FEC3BD
:1001430006001200FEF006001200FE170700120060
:10015300FE5F07001200FE7C07001200FE8C070002
:100163001200FE9C07001200FEB307001200FEC53A
:1001730007001200FED707001200FEEB0700120073
:10018300FEED08001200FE010900E0FAA3E0FBA364
:10019300E0FCA3E0FD22EAF0A3EBF0A3ECF0A3ED77
:1001A300F022CAC0E0E6F0A308DAFAD0E0FA22703F
:1001B3000422600D18C6C333C608C633C6D5E0F49F
:1001C3001822C0D0251010AF08F510500205118079
:1001D30008F51050020511D2AFD0D0222510F582B8
:1001E30010AF08F510400215118008F510400215F4
:1001F30011D2AF851183222510F582E43511F583E1
:1002030022E4732510C582C0E0E51134FFC583C025
:10021300E0E510C3958224F810AF08858311858229
:10022300108008858311858210D2AFCEF0A3E5201C
:10023300F0A37808E608F0A3DEFAEFF0A3E5812443
:10024300FAF8E608F0A3E608F0A3E608F0A3080826
:10025300E608F0A3E608F0A315811581D0E0FED0EF
:10026300E0F8158115811581E8C0E0EEC0E0228534
:100273001183851082E0A3FEE0A3F5207808E0A3B4
:10028300F608DFFAE0A3FFE0A3C0E0E0A3C0E0E0EC
:10029300A3C0E0E0A3C0E0E0A3C0E010AF08858204
:1002A300108583118008858210858311D2AFD08396
:1002B300D0820200FBC0D02510C582C0E0E5113416
:1002C300FFC583C0E0E510C3958224F310AF088512
:1002D30083118582108008858311858210D2AFC86F
:1002E300F0A3E9F0A3EAF0A3EBF0A37908E709F0A0
:1002F300A3D8FAECF0A3EDF0A3EEF0A3EFF0A3D0B4
:10030300E0F0A3D0E0F0A3D0E0F0A3E520F0A3E574
:10031300F0F0A322851183851082E0C0E0A3E0F909
:10032300A3E0FAA3E0FBA37808E0F608A3DFFAE072
:10033300FCA3E0FDA3E0FEA3E0FFA3E0C0E0A3E095
:10034300C0E0A3E0F5D0A3E0F520A3E0A3F5F0100F
:10035300AF088583118582108008858311858210FB
:10036300D2AFD082D083D0E0F8D0E03274028000E4
:10037300C0E0F4041201DFD0E01201A522C0E07452
:10038300F21202B8A2AFE433FEC2AFE5E9A2E6502F
:100393001A90018AE0F8A3E0F9E8496008E0F583E0
:1003A3008882120204759B0053E9BFEEA2E092AF6C
:1003B3007F01020317C0E074F11202B8C2C5E589D8
:1003C30060477E00750801750900EE78081201B2D6
:1003D300AF08E5895F602BEEC333F8E433F9748C1F
:1003E30028F58274011204676014EEC333F8E43312
:1003F300F9748C28F5827401120472120204EFF46A
:1004030052890EEEC3940840BB7F02020317C0E07B
:1004130074F11202B8C2EBE58A60477E00750801E9
:10042300750900EE78081201B2AF08E58A5F602B08
:10043300EEC333F8E433F9749C28F5827401120493
:10044300676014EEC333F8E433F9749C28F58274BF
:1004530001120472120204EFF4528A0EEEC39408DE
:1004630040BB80A539F583E0F8A3E0F9E8492239D8
:10047300F583E0F8A3E0F583888222C0E074F112EB
:1004830002B8C2E8E58B60477E0075080175090074
:10049300EE78081201B2AF08E58B5F602BEEC33331
:1004A300F8E433F974AC28F582740112046760141C
:1004B300EEC333F8E433F974AC28F5827401120403
:1004C30072120204EFF4528B0EEEC3940540BB028A
:1004D300040CC0E074F21202B8C2C779041201819D
:1004E3000203B3C082C083120157D2AF79017A0AE3
:1004F3007B0112015190010AE0C2E7F064057035F7
:1005030079051205C15004D2F08002C2F0A2F0E4D2
:10051300339001E4F090010FE0A2E740030205B934
:1005230090010DE0F8900101E06860030205B9A3B2
:1005330074010205B8E024F59001E1F090010AE0AE
:10054300F91205C15004D2F08002C2F0A2F0E433E4
:100553009001E4F0900112E0F8A3E0F99001DDE8E6
:10056300F0A3E9F09001E27414F0A37401F0900198
:10057300E1E0F83395E0F9741428F8740139F98847
:10058300828983E09001E5F088828983A3E0A2E772
:10059300501C9001DCE0F890010DE06860109001C0
:1005A3000BE054DF644170069001E67401F09001A2
:1005B3000DE09001DCF0C2AF12015D0207757A0B0A
:1005C3007B0112015190010BE0A2E52274F71202A4
:1005D30006EAFEEBFF12014BE96401700479018026
:1005E3006FC2AF900108EEF0A3EFF09001E2E4F0E8
:1005F300A3F090010304F09001E912018D9001042E
:1006030012019975F005120658A3A3E0A424D4900F
:10061300618FF0900109E0F5838882E0F8A3E0F9A7
:10062300E8906174F0E9A3F0120658E0F8A3E0F94A
:10063300E8906172F0E9A3F0E5A8F8C2AF90018AEF
:100643007427F0A37401F0E8A2E792AFD2AF790068
:100653007F01020272900108E0F8A3E0F58388822B
:10066300A3A322E5C65480F853BEFBE59DA2E55043
:10067300FAE59DA2E240F4007401697007744948E9
:10068300F5C68005E9700288C6E5C6F8E59E687080
:10069300FB43BE040200FBE9F8E59EA2E6400479B1
:1006A30001801AE8700553C67F80087401687003DF
:1006B30043C680E5C6F9E59E6970FB79000200FB3D
:1006C300EBC313FBEA13FAEAF8EBF9E824FFFAE9C0
:1006D30034FFFBE849601300000000000000000045
:1006E300000000000000000080DD0200FB74F71230
:1006F3000206EAFEEBFFEEF8EFF9E824FFFEE93429
:10070300FFFFE84960097AE87B0312013F80E77F36
:1007130001020272C082C083906189E04460F0905C
:1007230061FA7409F09061B27415F09061AEE4F06F
:100733009001E8E0601F9061B27415F09061AEE43F
:10074300F09061EB7468F090624474FBF053F4EF43
:1007530043FE10D29412015D79008016C082C083DB
:10076300800DE5D98A828B83F0A3AA82AB8319E932
:1007730070F0D083D0820200FBC082C0839061A35B
:10078300E0C2E6F0539AFE80E9C082C0839061A381
:10079300E0D2E6F0439A0180D9C082C08379011286
:1007A300017579021201757A327B0012014580EDE1
:1007B300E91460051460068006D2958002D2800297
:1007C30000FBE91460051460068006C2958002C22E
:1007D300800200FBE9146005146007800863902021
:1007E30080036380010200FB74F61202069001E6A7
:1007F300E060FAC2AF9001E1E0F8C3941E5004E850
:10080300FF80027F1E8F08750900780812036F901E
:1008130001E2E0FCA3E0FD7ABC7B011201877402D4
:100823001201C59001E6E4F0D2AF9001E1E0F8C314
:10083300941E503AE8FE603674056E70319001BC28
:10084300E064317029A3E064327023A3E064337061
:100853001D9001DAE02401F0A3E03400F0790112E5
:10086300016F7AF47B0112014579011201697F025C
:100873000202727900120139E96010790112013321
:100883007900120139E9600312016379001201331F
:1008930043FE20D29543FD01D28053F4FE53FEFE66
:1008A30043F601D2AF12014BE964017003120163F5
:1008B3009001B674EFF0A374BEF0A37407F0A374B1
:1008C30020F0A37419F0A37401F07AB67B0112012E
:1008D3002DE9640170031201639001037401F07543
:1008E300E1EC75E1E312017B80FBE9C3940450085A
:1008F300E942BE75870180037587000200FB74F629
:10090300120206740A1201FAE0FEA3E0FFEAF8EB12
:10091300F980188C828D83E088828983F0A3A88272
:10092300A9838C828D83A3AC82AD838E088F09E566
:100933000824FF1EE50934FFFFE508450970D47F4D
:040943000202027238
:04000005000000E314
:00000001FF
