:020000040000FA
:030000000200E318
:03002B000204EEDE
:030033000204972D
:03006B000203D1BC
:03007B0002042A52
:1000830002039900000080FB120113B90003020070
:10009300CDE490010178DC79018002F0A3D8FCD98A
:1000A300FA9001DCAA82AB83900116781379018060
:1000B30015E493A3AC82AD838A828B83F0A3AA82D7
:1000C300AB838C828D83D8E9D9E775823E7583092A
:1000D30074001200F575828675830074001200F5B2
:1000E30075D0007581BF751001751101759F0002F0
:1000F300008BC09FF59FE473D09F22D083D082C032
:100103009FE493C0E0740193C0E0740293F59F22CF
:10011300790122FF000000000000000000000049F8
:1001230001000000001200FEFF04001200FEE805BB
:10013300001200FE7F06001200FEB306001200FE4E
:10014300DC06001200FE0007001200FE2D0700125D
:1001530000FE5407001200FEA507001200FED007A0
:10016300001200FEE807001200FEF807001200FE6E
:100173000808001200FE1F08001200FE31080012DA
:1001830000FE4308001200FE5708001200FEB308E9
:10019300001200FE8C09001200FEFD09001200FE91
:1001A300110A00E0FAA3E0FBA3E0FCA3E0FD22EACE
:1001B300F0A3EBF0A3ECF0A3EDF022CAC0E0E6F06D
:1001C300A308DAFAD0E0FA22700422600D18C6C33D
:1001D30033C608C633C6D5E0F41822C0D0251010A4
:1001E300AF08F510500205118008F51050020511F3
:1001F300D2AFD0D0222510F58210AF08F5104002FF
:1002030015118008F51040021511D2AF8511832214
:100213002510F582E43511F58322E4732510C58298
:10022300C0E0E51134FFC583C0E0E510C395822427
:10023300F810AF08858311858210800885831185A6
:100243008210D2AFCEF0A3E520F0A37808E608F041
:10025300A3DEFAEFF0A3E58124FAF8E608F0A3E6BB
:1002630008F0A3E608F0A30808E608F0A3E608F000
:10027300A315811581D0E0FED0E0F8158115811515
:1002830081E8C0E0EEC0E022851183851082E0A3FF
:10029300FEE0A3F5207808E0A3F608DFFAE0A3FF69
:1002A300E0A3C0E0E0A3C0E0E0A3C0E0E0A3C0E0BF
:1002B300E0A3C0E010AF0885821085831180088514
:1002C3008210858311D2AFD083D0820200FBC0D0CD
:1002D3002510C582C0E0E51134FFC583C0E0E510F9
:1002E300C3958224F310AF0885831185821080089B
:1002F300858311858210D2AFC8F0A3E9F0A3EAF099
:10030300A3EBF0A37908E709F0A3D8FAECF0A3ED87
:10031300F0A3EEF0A3EFF0A3D0E0F0A3D0E0F0A3BE
:10032300D0E0F0A3E520F0A3E5F0F0A3228511834C
:10033300851082E0C0E0A3E0F9A3E0FAA3E0FBA309
:100343007808E0F608A3DFFAE0FCA3E0FDA3E0FEF3
:10035300A3E0FFA3E0C0E0A3E0C0E0A3E0F5D0A3E7
:10036300E0F520A3E0A3F5F010AF088583118582A3
:10037300108008858311858210D2AFD082D083D0BC
:10038300E0F8D0E03274028000C0E0F4041201F817
:10039300D0E01201BE22C0E074F21202D1A2AFE497
:1003A30033FEC2AFE5E9A2E6501A90018AE0F8A352
:1003B300E0F9E8496008E0F583888212021D759B25
:1003C3000053E9BFEEA2E092AF7F01020330C0E029
:1003D30074F11202D1C2C5E58960477E0075080138
:1003E300750900EE78081201CBAF08E5895F602B31
:1003F300EEC333F8E433F9748C28F58274011204E4
:10040300806014EEC333F8E433F9748C28F58274F6
:100413000112048B12021DEFF452890EEEC39408ED
:1004230040BB7F02020330C0E074F11202D1C2EB81
:10043300E58A60477E00750801750900EE780812A9
:1004430001CBAF08E58A5F602BEEC333F8E433F9E1
:10045300749C28F58274011204806014EEC333F88F
:10046300E433F9749C28F582740112048B12021D83
:10047300EFF4528A0EEEC3940840BB80A539F5838E
:10048300E0F8A3E0F9E8492239F583E0F8A3E0F5C1
:1004930083888222C0E074F11202D1C2E8E58B6046
:1004A300477E00750801750900EE78081201CBAF8D
:1004B30008E58B5F602BEEC333F8E433F974AC28A3
:1004C300F58274011204806014EEC333F8E433F947
:1004D30074AC28F582740112048B12021DEFF452DE
:1004E3008B0EEEC3940540BB020425C0E074F212E8
:1004F30002D1C2C7790412019A0203CCC082C0831D
:10050300120164D2AF79017A0A7B0112015E900174
:100513000AE0C2E7F06405703579051205DA500484
:10052300D2F08002C2F0A2F0E4339001E4F0900133
:100533000FE0A2E740030205D290010DE0F890011D
:1005430001E06860030205D2A374010205D1E0242F
:10055300F59001E1F090010AE0F91205DA5004D2B6
:10056300F08002C2F0A2F0E4339001E4F0900112B3
:10057300E0F8A3E0F99001DDE8F0A3E9F09001E2EF
:100583007414F0A37401F09001E1E0F83395E0F9FD
:10059300741428F8740139F988828983E09001E59D
:1005A300F088828983A3E0A2E7501C9001DCE0F885
:1005B30090010DE068601090010BE054DF6441701E
:1005C300069001E67401F090010DE09001DCF0C2A9
:1005D300AF12016A0207C97A0B7B0112015E900117
:1005E3000BE0A2E52274F712021FEAFEEBFF1201F1
:1005F30052E9640170047901806FC2AF900108EE83
:10060300F0A3EFF09001E2E4F0A3F090010304F013
:100613009001EA1201A69001041201B275F00512CD
:100623000671A3A3E0A424D490618FF0900109E0A4
:10063300F5838882E0F8A3E0F9E8906174F0E9A318
:10064300F0120671E0F8A3E0F9E8906172F0E9A313
:10065300F0E5A8F8C2AF90018A7428F0A37401F002
:10066300E8A2E792AFD2AF79007F0102028B90013B
:1006730008E0F8A3E0F5838882A3A322E5C65480AB
:10068300F853BEFBE59DA2E550FAE59DA2E240F4D6
:10069300007401697007744948F5C68005E9700262
:1006A30088C6E5C6F8E59E6870FB43BE040200FBFE
:1006B300E9F8E59EA2E640047901801AE870055343
:1006C300C67F8008740168700343C680E5C6F9E5F8
:1006D3009E6970FB79000200FBC082C0837900121F
:1006E300013AE960107901120134790012013AE903
:1006F300600312017079001201340207C9EBC313BE
:10070300FBEA13FAEAF8EBF9E824FFFAE934FFFB12
:10071300E849601300000000000000000000000032
:10072300000000000080DD0200FB74F712021FEAE4
:10073300FEEBFFEEF8EFF9E824FFFEE934FFFFE8F4
:100743004960097AE87B0312014680E77F010202D0
:100753008BC082C083906189E04460F09061FA7439
:1007630009F09061B27415F09061AEE4F09001E984
:10077300E060289061B27415F09061AEE4F090618E
:10078300EB7468F0A3746AF090624474FBF09062B7
:100793004304F043FD80790112015812016A790084
:1007A3008024C082C083E9700FC28774080014706C
:1007B300FC9001E87443800DD2877408001470FC28
:1007C3009001E8744FF0D083D0820200FBC082C056
:1007D30083800DE5D98A828B83F0A3AA82AB831928
:1007E300E970F080E1C082C0839061A3E0C2E6F0CB
:1007F300539AFE80D1C082C0839061A3E0D2E6F019
:10080300439A0180C1C082C08379011201827902B7
:100813001201827A327B0012014C80EDE9146005EB
:100823001460068006D2848002D2800200FBE914A1
:1008330060051460068006C2848002C2800200FB49
:10084300E9146005146007800863801080036380E7
:10085300010200FB74F712021FE9FE9001B6700853
:1008630074EFF0A374BE80067420F0A37425F0A384
:100873007407F0A37420F0A3740BF0A37401F07A4F
:10088300B67B0112012EE9640170031201709061BD
:100893009074F5F0EE900103700B7401F075E1ECC8
:1008A30075E1E38008E4F075E1EF75E1EC02066CB5
:1008B30074F612021F9001E6E060FAC2AF9001E104
:1008C300E0F8C3941E5004E8FF80027F1E8F087572
:1008D300090078081203889001E2E0FCA3E0FD7AA6
:1008E300BC7B011201A074021201DE9001E6E4F068
:1008F300D2AF9001E1E0F8C3941E503AE8FE6036AF
:1009030074056E70319001BCE064317029A3E0641A
:10091300327023A3E06433701D9001DAE02401F008
:10092300A3E03400F0790112017C7AF47B01120117
:100933004C79011201767F0202028B12014043FDC2
:1009430010D28443FD01D28053F3DF53FDDF438F85
:100953002075FDDF75FE0375FF00D284D280D2AF10
:10096300120152E9640170031201707900120188C7
:10097300120194E97005790212017C75FD9175FEEF
:100983000375FF0012018E80FB7B00D281D282D2DD
:1009930083D286EB601514600E14600714700EC2C8
:1009A30086800AC2838006C2828002C281A293E447
:1009B30033FAA296E433F9A297E433F8A2A0E4331E
:1009C30028292A6403702AEB601C14601514600C38
:1009D30014701EA293501379000200FBA29640F7F5
:1009E3008008A29780F8A2A040ED0BEBC3940440CB
:1009F3009A74046B70E1790180DFE9C394045008B1
:100A0300E942BE75870180037587000200FB74F617
:100A130012021F740A120213E0FEA3E0FFEAF8EBCE
:100A2300F980188C828D83E088828983F0A3A88261
:100A3300A9838C828D83A3AC82AD838E088F09E555
:100A43000824FF1EE50934FFFFE508450970D47F3C
:040A53000202028B0E
:04000005000000E314
:00000001FF
