:020000040000FA
:030000000200E318
:03002B000204CEFE
:030033000204774D
:03006B000203B1DC
:03007B0002040A72
:1000830002037900000080FB120113B90003020090
:10009300CDE490010178BC79018002F0A3D8FCD9AA
:1000A300FA9001BCAA82AB8390011678167901807D
:1000B30015E493A3AC82AD838A828B83F0A3AA82D7
:1000C300AB838C828D83D8E9D9E77582C0758307AA
:1000D30074001200F575828675830074001200F5B2
:1000E30075D0007581BF751001751101759F0002F0
:1000F300008BC09FF59FE473D09F22D083D082C032
:100103009FE493C0E0740193C0E0740293F59F22CF
:10011300790122FF00000000000000000000000140
:1001230000000000000001001200FEDF04001200C6
:10013300FEC805001200FE5F06001200FE930600D3
:100143001200FEBC06001200FEE906001200FE10BB
:1001530007001200FE5807001200FE750700120088
:10016300FE8507001200FE9507001200FEAC070093
:100173001200FECA08001200FE2209001200FE9EB1
:1001830009006016080808C6C313C618C613C618A4
:10019300C613C618C613C6D5E0EA227009080808B4
:1001A300226016181818C6C333C608C633C608C655
:1001B30033C608C633C6D5E0EA22E026F608A3E034
:1001C30036F608A3E036F608A3E036F622E647F64D
:1001D3000809E647F60809E647F60809E647F6225E
:1001E300E0FAA3E0FBA3E0FCA3E0FD22EAF0A3EB2B
:1001F300F0A3ECF0A3EDF022700422600D18C6C347
:1002030033C608C633C6D5E0F41822E4732510C5F7
:1002130082C0E0E51134FFC583C0E0E510C39582D9
:1002230024F810AF08858311858210800885831117
:10023300858210D2AFCEF0A3E520F0A37808E608BC
:10024300F0A3DEFAEFF0A3E58124FAF8E608F0A3C1
:10025300E608F0A3E608F0A30808E608F0A3E6081A
:10026300F0A315811581D0E0FED0E0F8158115814A
:100273001581E8C0E0EEC0E022851183851082E09D
:10028300A3FEE0A3F5207808E0A3F608DFFAE0A3D5
:10029300FFE0A3C0E0E0A3C0E0E0A3C0E0E0A3C0B0
:1002A300E0E0A3C0E010AF088582108583118008C9
:1002B300858210858311D2AFD083D0820200FBC028
:1002C300D02510C582C0E0E51134FFC583C0E0E549
:1002D30010C3958224F310AF0885831185821080A3
:1002E30008858311858210D2AFC8F0A3E9F0A3EA91
:1002F300F0A3EBF0A37908E709F0A3D8FAECF0A395
:10030300EDF0A3EEF0A3EFF0A3D0E0F0A3D0E0F084
:10031300A3D0E0F0A3E520F0A3E5F0F0A32285113C
:1003230083851082E0C0E0A3E0F9A3E0FAA3E0FB39
:10033300A37808E0F608A3DFFAE0FCA3E0FDA3E05E
:10034300FEA3E0FFA3E0C0E0A3E0C0E0A3E0F5D09C
:10035300A3E0F520A3E0A3F5F010AF088583118592
:1003630082108008858311858210D2AFD082D0831A
:10037300D0E0F8D0E032C0E074F21202C2A2AFE4DF
:1003830033FEC2AFE5E9A2E6501A90018AE0F8A372
:10039300E0F9E8496008E0F583888212020E759B54
:1003A3000053E9BFEEA2E092AF7F01020321C0E058
:1003B30074F11202C2C2C5E58960477E0075080167
:1003C300750900EE78081201FBAF08E5895F602B21
:1003D300EEC333F8E433F9748C28F5827401120404
:1003E300606014EEC333F8E433F9748C28F5827437
:1003F3000112046B12020EEFF452890EEEC394083D
:1004030040BB7F02020321C0E074F11202C2C2EBBF
:10041300E58A60477E00750801750900EE780812C9
:1004230001FBAF08E58A5F602BEEC333F8E433F9D1
:10043300749C28F58274011204606014EEC333F8CF
:10044300E433F9749C28F582740112046B12020ED2
:10045300EFF4528A0EEEC3940840BB80A539F583AE
:10046300E0F8A3E0F9E8492239F583E0F8A3E0F5E1
:1004730083888222C0E074F11202C2C2E8E58B6075
:10048300477E00750801750900EE78081201FBAF7D
:1004930008E58B5F602BEEC333F8E433F974AC28C3
:1004A300F58274011204606014EEC333F8E433F987
:1004B30074AC28F582740112046B12020EEFF4522D
:1004C3008B0EEEC3940540BB020405C0E074F21228
:1004D30002C2C2C7790412017F0203ACC082C08387
:1004E30012015BD2AF79017A0A7B011201559001A7
:1004F3000AE0C2E7F06405703579051205BA5004C5
:10050300D2F08002C2F0A2F0E4339001C4F0900173
:100513000FE0A2E740030205B290010DE0F890015D
:1005230001E06860030205B2A374010205B1E0248F
:10053300F59001C1F090010AE0F91205BA5004D216
:10054300F08002C2F0A2F0E4339001C4F0900112F3
:10055300E0F8A3E0F99001BDE8F0A3E9F09001C24F
:100563007414F0A37401F09001C1E0F83395E0F93D
:10057300741428F8740139F988828983E09001C5DD
:10058300F088828983A3E0A2E7501C9001BCE0F8C5
:1005930090010DE068601090010BE054DF6441703E
:1005A300069001C67401F090010DE09001BCF0C209
:1005B300AF12016102076E7A0B7B011201559001A4
:1005C3000BE0A2E52274F7120210EAFEEBFF120120
:1005D3004FE9640170047901806FC2AF900108EEA6
:1005E300F0A3EFF09001C2E4F0A3F090010304F054
:1005F3009001C91201E39001041201EF75F0051295
:100603000651A3A3E0A424D490618FF0900109E0E4
:10061300F5838882E0F8A3E0F9E8906174F0E9A338
:10062300F0120651E0F8A3E0F9E8906172F0E9A353
:10063300F0E5A8F8C2AF90018A742BF0A37401F01F
:10064300E8A2E792AFD2AF79007F0102027C90016A
:1006530008E0F8A3E0F5838882A3A322E5C65480CB
:10066300F853BEFBE59DA2E550FAE59DA2E240F4F6
:10067300007401697007744948F5C68005E9700282
:1006830088C6E5C6F8E59E6870FB43BE040200FB1E
:10069300E9F8E59EA2E640047901801AE870055363
:1006A300C67F8008740168700343C680E5C6F9E518
:1006B3009E6970FB79000200FBEBC313FBEA13FA9C
:1006C300EAF8EBF9E824FFFAE934FFFBE8496013A1
:1006D3000000000000000000000000000000000017
:1006E3000080DD0200FB74F7120210EAFEEBFFEE5E
:1006F300F8EFF9E824FFFEE934FFFFE84960097ADF
:10070300E87B0312014380E77F0102027CC082C0C1
:1007130083906189E04460F09061FA7409F090611C
:10072300B27415F09061AEE4F09001C8E0601F90E0
:1007330061B27415F09061AEE4F09061EB7468F00F
:1007430090624874FBF053F4EF43FE10D29412010D
:100753006179008016C082C083800DE5D98A828BBF
:1007630083F0A3AA82AB8319E970F0D083D082020D
:1007730000FBC082C0839061A3E0C2E6F0539AFEFF
:1007830080E9C082C0839061A3E0D2E6F0439A017E
:1007930080D9C082C083790112016D790212016D83
:1007A3007A327B0012014980EDE914600514600779
:1007B300800863801080036380010200FB790012CC
:1007C300013DE960107901120137790012013DE919
:1007D3006003120167790012013743FD10D284438D
:1007E300FD01D28053F3DF53FDDF438F2075FDDF1F
:1007F30075FE3175FF00D284D280D2AF7597007534
:100803009600759500D2ADC2C7D2AF12014FE9640D
:100813000170031201679001B67420F0A37425F0F0
:10082300A37407F0A37420F0A37419F0A37401F068
:100833007AB67B01120131E96401700312016790FA
:100843000103E4F075E1EF75E1ECD284C294E59520
:10085300F50CE596F508E4F50DF50EF50FF509F53C
:100863000AF50B7408780812019E780C79081201B6
:10087300D0859708E4F5097410780812019E780C66
:1008830079081201D09001CD780C1201BD850C08B6
:10089300850D09850E0A850F0B74107808120185E2
:1008A300E508F597850D09E509F596E50CF59579C4
:1008B3000212017F120173E97002C28075FD117586
:1008C300FE3075FF0080FE74F71202107E00D281A5
:1008D300D282D283D286D287D290EE602314601C58
:1008E30014601514600E146007147016C290801201
:1008F300C287800EC286800AC2838006C2828002BB
:10090300C281EEF9120179E970070EEEC394064035
:10091300BD74066E700479018002790002064C747E
:10092300F7120210E9FE7901C39407506BE5A0FFAB
:10093300E590F8E590FAE590FBE590FCA291E433AD
:10094300FDECA2E2E433FCEBA2E3E433FBEAA2E630
:10095300E433FAE8A2E7E433F8EFA2E0E433282A29
:100963002B2C2D64057031EE601114601514601882
:1009730014601914601A14601B801DA2A040191979
:100983008016A297401280F7A29680F8A29380F473
:10099300A29280F0A29150E702064CE9C39404505E
:0F09A30008E942BE75870180037587000200FBDB
:04000005000000E314
:00000001FF
