:020000040000FA
:030000000200E318
:03002B000204ECE0
:030033000204952F
:03006B000203CFBE
:03007B0002042854
:1000830002039700000080FB120113B90003020072
:10009300CDE4900101783179028002F0A3D8FCD934
:1000A300FA900231AA82AB83900116781C79018001
:1000B30015E493A3AC82AD838A828B83F0A3AA82D7
:1000C300AB838C828D83D8E9D9E775826875830900
:1000D30074001200F575828675830074001200F5B2
:1000E30075D0007581BF751001751101759F0002F0
:1000F300008BC09FF59FE473D09F22D083D082C032
:100103009FE493C0E0740193C0E0740293F59F22CF
:10011300790122FF000000000000000000000049F8
:10012300013132330D0A000000000080000012008C
:10013300FEFD04001200FEE605001200FE67060045
:100143001200FE8B07001200FEBF07001200FEE83C
:1001530007001200FE1508001200FE3C0800120002
:10016300FE8D08001200FEB308001200FEDC08003A
:100173001200FEF908001200FE0909001200FE1920
:1001830009001200FE3009001200FE4209001200AD
:10019300FE5409001200FEA30A001200FE140B0015
:1001A3006016080808C6C313C618C613C618C613B4
:1001B300C618C613C6D5E0EA2270090808082260EB
:1001C30016181818C6C333C608C633C608C633C6BE
:1001D30008C633C6D5E0EA22E026F608A3E036F6E1
:1001E30008A3E036F608A3E036F622E647F6080948
:1001F300E647F60809E647F60809E647F622E0FA75
:10020300A3E0FBA3E0FCA3E0FD22EAF0A3EBF0A351
:10021300ECF0A3EDF022700422600D18C6C333C6C0
:1002230008C633C6D5E0F41822E4732510C582C08E
:10023300E0E51134FFC583C0E0E510C3958224F8DF
:1002430010AF08858311858210800885831185820C
:1002530010D2AFCEF0A3E520F0A37808E608F0A310
:10026300DEFAEFF0A3E58124FAF8E608F0A3E60846
:10027300F0A3E608F0A30808E608F0A3E608F0A355
:1002830015811581D0E0FED0E0F815811581158127
:10029300E8C0E0EEC0E022851183851082E0A3FE72
:1002A300E0A3F5207808E0A3F608DFFAE0A3FFE077
:1002B300A3C0E0E0A3C0E0E0A3C0E0E0A3C0E0E0AF
:1002C300A3C0E010AF088582108583118008858262
:1002D30010858311D2AFD083D0820200FBC0D0251A
:1002E30010C582C0E0E51134FFC583C0E0E510C34B
:1002F300958224F310AF08858311858210800885C9
:100303008311858210D2AFC8F0A3E9F0A3EAF0A36A
:10031300EBF0A37908E709F0A3D8FAECF0A3EDF02A
:10032300A3EEF0A3EFF0A3D0E0F0A3D0E0F0A3D0CE
:10033300E0F0A3E520F0A3E5F0F0A3228511838587
:100343001082E0C0E0A3E0F9A3E0FAA3E0FBA37806
:1003530008E0F608A3DFFAE0FCA3E0FDA3E0FEA3B8
:10036300E0FFA3E0C0E0A3E0C0E0A3E0F5D0A3E09A
:10037300F520A3E0A3F5F010AF0885831185821063
:100383008008858311858210D2AFD082D083D0E0DC
:10039300F8D0E032C0E074F21202E0A2AFE433FE20
:1003A300C2AFE5E9A2E6501A9001FDE0F8A3E0F937
:1003B300E8496008E0F583888212022C759B00539C
:1003C300E9BFEEA2E092AF7F0102033FC0E074F108
:1003D3001202E0C2C5E58960477E00750801750910
:1003E30000EE7808120219AF08E5895F602BEEC3AF
:1003F30033F8E433F974FF28F582740112047E6044
:1004030014EEC333F8E433F974FF28F58274011250
:10041300048912022CEFF452890EEEC3940840BBF8
:100423007F0202033FC0E074F11202E0C2EBE58AEF
:1004330060477E00750801750900EE7808120219FD
:10044300AF08E58A5F602BEEC333F8E433F9740F2A
:1004530028F582740212047E6014EEC333F8E43389
:10046300F9740F28F582740212048912022CEFF436
:10047300528A0EEEC3940840BB80A539F583E0F899
:10048300A3E0F9E8492239F583E0F8A3E0F583888E
:100493008222C0E074F11202E0C2E8E58B60477E7D
:1004A30000750801750900EE7808120219AF08E516
:1004B3008B5F602BEEC333F8E433F9741F28F582A6
:1004C300740212047E6014EEC333F8E433F9741F2C
:1004D30028F582740212048912022CEFF4528B0E57
:1004E300EEC3940540BB020423C0E074F21202E0A1
:1004F300C2C7790412019D0203CAC082C0831201DC
:1005030073D2AF79017A7D7B0112016D90017DE099
:10051300C2E7F06405703579051205D85004D2F0AE
:100523008002C2F0A2F0E433900239F0900182E03D
:10053300A2E740030205D0900180E0F8900101E0BA
:100543006860030205D0A374010205CFE024F5908F
:100553000236F090017DE0F91205D85004D2F08004
:1005630002C2F0A2F0E433900239F0900185E0F882
:10057300A3E0F9900232E8F0A3E9F0900237748720
:10058300F0A37401F0900236E0F83395E0F9748734
:1005930028F8740139F988828983E090023AF08857
:1005A300828983A3E0A2E7501C900231E0F8900116
:1005B30080E068601090017EE054DF644170069033
:1005C300023B7401F0900180E0900231F0C2AF125F
:1005D30001790208F27A7E7B0112016D90017EE0BF
:1005E300A2E52274F712022EEAFEEBFF12015BE989
:1005F3006401700479018067C2AF900108EEF0A333
:10060300EFF0900237E4F0A3F090010304F09002BE
:100613004412020190010412020D75F00512077BCA
:10062300E0A424D490618FF090010912075DE89053
:100633006174F0E9A3F0900108E0F8A3120768E8F9
:10064300906172F0E9A3F0E5A8F8C2AF9001FD74E0
:1006530031F0A37401F0E8A2E792AFD2AF79007F43
:100663000102029A74F512022EEAFEEBFF8C088D4A
:1006730009890A900103E0700675E1EC75E1E3E98D
:10068300C394674003750A67906193E0542270F83E
:10069300120173740B250A90010AF0120775900179
:1006A3000B6004746180027441F0A37488F09001BC
:1006B30001E090010DF090010912076890010EE826
:1006C300F0A3E9F0A3EEF0A3EFF0900108E0F8A3A4
:1006D30012075D900112E8F0A3E9F07A0080218A05
:1006E30082A882E50828F582E5093400F583E0C095
:1006F300E0741428F58274013400F583D0E0F00A25
:10070300EAC3950A40D9740A250AF97A0A7B0112C9
:10071300016712017975E1E9E591A2E150FA75915A
:10072300FD1207756012900102E4F07A4A7B02120F
:10073300014F900102E06004790080027901900189
:1007430003E0700675E1EF75E1ECE9A2E040069085
:100753000101E004F07F0302029AE0F5838882E05E
:10076300F8A3E0F922E0F5838882A3A3E0F8A3E0ED
:10077300F92212077BA3E022900108E0F8A3E0F539
:10078300838882A3A3A3A322E5C65480F853BEFBA8
:10079300E59DA2E550FAE59DA2E240F400740169EB
:1007A3007007744948F5C68005E9700288C6E5C636
:1007B300F8E59E6870FB43BE040200FBE9F8E59E82
:1007C300A2E640047901801AE8700553C67F8008C9
:1007D300740168700343C680E5C6F9E59E6970FB42
:1007E30079000200FBEBC313FBEA13FAEAF8EBF917
:1007F300E824FFFAE934FFFBE84960130000000036
:100803000000000000000000000000000080DD0286
:1008130000FB74F712022EEAFEEBFFEEF8EFF9E8A5
:1008230024FFFEE934FFFFE84960097AE87B0312FD
:10083300014F80E77F0102029AC082C083906189E1
:10084300E04460F09061FA7409F09061B27415F0BD
:100853009061AEE4F090023EE060289061B27415BE
:10086300F09061AEE4F09061EB7468F0A3746AF009
:1008730090624474FBF090624304F043FD8079017D
:1008830012016112017979008065C082C083E97029
:100893000FC2877408001470FC90023D7443800DEE
:1008A300D2877408001470FC90023D744FF0803FAF
:1008B30074F612022E75E1EE7591FD7800801088B2
:1008C30008EA2508F582EB3400F583E0F5D908E85A
:1008D300C39940EB7F0202029AC082C083800DE578
:1008E300D98A828B83F0A3AA82AB8319E970F0D0F3
:1008F30083D0820200FBC082C0839061A3E0C2E682
:10090300F0539AFE80E9C082C0839061A3E0D2E6EF
:10091300F0439A0180D9C082C08379011201917991
:10092300021201917A327B0012015580EDE91460C5
:10093300051460068006D2848002D2800200FBE99F
:100943001460051460068006C2848002C28002001F
:10095300FBE914600514600780086380108003635B
:1009630080010200FB7900120149E960107901124C
:1009730001437900120149E9600312017F790012F2
:10098300014343FD10D28443FD01D28053F3DF536F
:10099300FDDF438F2075FDDF75FE0375FF00D284F5
:1009A300D280D2AF759700759600759500D2ADC20F
:1009B300C7D2AF12015BE96401700312017F900299
:1009C300297420F0A37425F0A37407F0A37420F016
:1009D300A3740BF0A37401F07A297B02120137E9A7
:1009E3006401700312017F90619074F5F09001032C
:1009F300E4F075E1EF75E1EC7901120185C291C272
:100A030090C287E595F50CE596F508E4F50DF50E2E
:100A1300F50FF509F50AF50B740878081201BC788F
:100A23000C79081201EE859708E4F509741078082B
:100A33001201BC780C79081201EE900248780C126E
:100A430001DB850C08850D09850E0A850F0B7410D3
:100A530078081201A3E508F597850D09E509F596D0
:100A6300E50CF595790112019D120197E97005795D
:100A73000212018B75FD9175FE0375FF0079057CEC
:100A83003F7D027AEF7BBE12013DE970F090022FA9
:100A9300E02401F0A3E03400F0790112018B80DD42
:100AA3007B00D281D282D283D286EB601514600E92
:100AB30014600714700EC286800AC2838006C28245
:100AC3008002C281A293E433FAA296E433F9A29797
:100AD300E433F8A2A0E43328292A6403702AEB60E4
:100AE3001C14601514600C14701EA293501379002B
:100AF3000200FBA29640F78008A29780F8A2A040CC
:100B0300ED0BEBC39404409A74046B70E17901809C
:100B1300DFE9C394045008E942BE75870180037579
:050B230087000200FB49
:04000005000000E314
:00000001FF
