:020000040000FA
:030000000200D328
:03002B0002093B8C
:030033000206873B
:03006B000205BDCE
:03007B0002062258
:1000830002057800000080FB1200E2B900030200C1
:10009300CDE490010178DC79018002F0A3D8FCD98A
:1000A300FA9001DCAA82AB839000E5781179018094
:1000B30015E493A3AC82AD838A828B83F0A3AA82D7
:1000C300AB838C828D83D8E9D9E71207ED120086C2
:1000D30075D0007581BF75100175110102008B7910
:1000E3000122FF00000000000000000000000000EB
:1000F3000000E0FAA3E0FBA3E0FCA3E0FD22EAF0AA
:10010300A3EBF0A3ECF0A3EDF022CAC0E0E6F0A36A
:1001130008DAFAD0E0FA22700422600D18C6C3335D
:10012300C608C633C6D5E0F41822C0D0251010AFD8
:1001330008F510500205118008F51050020511D280
:10014300AFD0D0222510F58210AF08F5104002156C
:10015300118008F51040021511D2AF8511832225B5
:1001630010F582E43511F58322E4732510C582C0AE
:10017300E0E51134FFC583C0E0E510C3958224F99F
:1001830010AF0885831185821080088583118582CD
:1001930010D2AFCEF0A3E520F0A37808E608F0A3D1
:1001A300DEFAEFF0A3E58124FBF8E608F0A3E60806
:1001B300F0A30808E608F0A3E608F0A3158115816B
:1001C300D0E0FED0E0F815811581E8C0E0EEC0E094
:1001D30022851183851082E0A3FEE0A3F520780831
:1001E300E0A3F608DFFAE0A3FFE0A3C0E0E0A3C0CA
:1001F300E0E0A3C0E0E0A3C0E010AF088582108573
:1002030083118008858210858311D2AFD083D08279
:1002130022C0D02510C582C0E0E51134FFC583C0DC
:10022300E0E510C3958224F310AF0885831185821E
:10023300108008858311858210D2AFC8F0A3E9F03E
:10024300A3EAF0A3EBF0A37908E709F0A3D8FAEC4B
:10025300F0A3EDF0A3EEF0A3EFF0A3D0E0F0A3D072
:10026300E0F0A3D0E0F0A3E520F0A3E5F0F0A322B3
:10027300851183851082E0C0E0A3E0F9A3E0FAA32F
:10028300E0FBA37808E0F608A3DFFAE0FCA3E0FDB7
:10029300A3E0FEA3E0FFA3E0C0E0A3E0C0E0A3E08F
:1002A300F5D0A3E0F520A3E0A3F5F010AF08858314
:1002B300118582108008858311858210D2AFD08288
:1002C300D083D0E0F8D0E03274028000C0E0F404C0
:1002D300120147D0E012010D22C082C083120558DB
:1002E300D2AF79017A0A7B0112053D90010AE0C27F
:1002F300E7F06405703D79057A0B7B0112053DA398
:10030300E0A2E55004D2F08002C2F0A2F0E4339000
:1003130001E4F090010FE0A2E740030203BF900164
:100323000DE0F8900101E06860030203BFA37401CC
:100333000203BEE024F59001E1F090010AE0F97AAE
:100343000B7B0112053DA3E0A2E55004D2F080022D
:10035300C2F0A2F0E4339001E4F0900112E0F8A3BC
:10036300E0F99001DDE8F0A3E9F09001E27414F004
:10037300A37401F09001E1E0F83395E0F9741428D7
:10038300F8740139F988828983E09001E5F0888265
:100393008983A3E0A2E7501C9001DCE0F890010DF3
:1003A300E068601090010BE054DF64417006900137
:1003B300E67401F090010DE09001DCF0C2AF12058C
:1003C30068020553C082C0838A828B8312051AE9AF
:1003D3006401700479018075C2AFA882A98390017A
:1003E30008E8F0A3E9F09001E2E4F0A3F090010340
:1003F30004F09001E81200F590010412010175F078
:1004030005900108120619A3A3A3A3E0A424D49082
:10041300618FF090010912061C120680906174F03E
:10042300E9A3F0900108120619A3A31206809061B4
:1004330072F0E9A3F0E5A8F8C2AF90018A74DCF08A
:10044300A37402F0E8A2E792AFD2AF79000205539A
:10045300E5C65480F853BEFBE59DA2E550FAE59D41
:10046300A2E240F4007401697007744948F5C6803C
:1004730005E9700288C6E5C6F8E59E6870FB43BED1
:100483000422E9F8E59EA2E64003790122E870051B
:1004930053C67F8008740168700343C680E5C6F9BC
:1004A300E59E6970FB7900227900120485E96010EA
:1004B30079011204537900120485E960031205AA35
:1004C3007900020453EBC313FBEA13FAEAF8EBF9DE
:1004D300E824FFFAE934FFFBE84960130000000059
:1004E3000000000000000000000000000080DD228A
:1004F30074F812016EEAFEEBFFEEF8EFF9E824FF61
:10050300FEE934FFFFE84960097AE87B031204C877
:1005130080E77F010201D4C082C083906189E044F7
:1005230060F09061FA7409F09061B27415F0906113
:10053300AEE4F012056879008016C082C083800D96
:10054300E5D98A828B83F0A3AA82AB8319E970F081
:10055300D083D08222C082C0839061A3E0C2E6F040
:10056300539AFE80EBC082C0839061A3E0D2E6F091
:10057300439A0180DBC0E074F2120214A2AFE433A9
:10058300FEC2AFE5E9A2E6501490018A12067B6031
:100593000612061C12016C759B0053E9BFEEA2E024
:1005A30092AF7F0102027379011206FA79021206F1
:1005B300FA7A327B001204F380EDC0E074F1120288
:1005C30014C2C5E58960477E00750801750900EE10
:1005D300780812011AAF08E5895F602BEEC333F880
:1005E300E433F9748C28F58274011206786014EEF2
:1005F300C333F8E433F9748C28F5827401120616B8
:1006030012016CEFF452890EEEC3940840BB7F02D3
:1006130002027339F583E0F8A3E0F583888222C0F0
:10062300E074F1120214C2EBE58A60477E0075089C
:1006330001750900EE780812011AAF08E58A5F60B8
:100643002BEEC333F8E433F9749C28F5827401125A
:1006530006786014EEC333F8E433F9749C28F5820A
:10066300740112061612016CEFF4528A0EEEC39453
:100673000840BB809939F5831206804922E0F8A32C
:10068300E0F9E822C0E074F1120214C2E8E58B60DD
:10069300477E00750801750900EE780812011AAF4C
:1006A30008E58B5F602BEEC333F8E433F974AC28B1
:1006B300F58274011206786014EEC333F8E433F95B
:1006C30074AC28F582740112061612016CEFF45211
:1006D3008B0EEEC3940540BB020611E914600414AB
:1006E300600422D29122D28022E9146004146004AF
:1006F30022C29122C28022E914600414600522639D
:100703009002226380012274F812016EE9FE9001C7
:10071300B6700874EFF0A374BE80067420F0A3745F
:1007230025F0A37407F0A37420F0A37419F0A37445
:1007330001F07AB67B011203C7E964017003120565
:10074300AAEE900103700B7401F075E1EC75E1E31F
:100753008008E4F075E1EF75E1EC7F010201D474E8
:10076300F712016E9001E6E060FAC2AF9001E1E09A
:10077300F8C3941E5004E8FF80027F1E8F0875099A
:100783000078081202CB9001E2E0FCA3E0FD7ABC02
:100793007B0112094C740212012D9001E6E4F0D2A0
:1007A300AF9001E1E0F8C3941E503AE8FE6036745E
:1007B300056E70319001BCE064317029A3E06432AE
:1007C3007023A3E06433701D9001DAE02401F0A3E9
:1007D300E03400F079011206EC7AF47B011204F3A1
:1007E30079011206DE7F020201D41204AB43FE023A
:1007F300D29143FD01D28053F4FE53FEFE43F60132
:1008030075FDFF75FE0275FF00D291D280D2AF1243
:10081300051AE9640170031205AA790012070A1286
:10082300083BE9700579021206EC75FD0175FE02BD
:1008330075FF0012076280FBEEC0E07E00D281D21A
:1008430082D283D284D285D286D287EE602A146084
:100853002314601C14601514600E14600714701ABE
:10086300C2878016C2868012C285800EC284800A27
:10087300C2838006C2828002C281EEF912089BE91C
:1008830060070EEEC3940740B474076E70047901D9
:1008930080027900D0E0FE2274F812016EE9FF793C
:1008A30000C39408507EE5A0F508E590F8E590FABA
:1008B300E590FBE590FCE590FDA292E433FEEDA20A
:1008C300E3E433FDECA2E4E433FCEBA2E5E433FB25
:1008D300EAA2E6E433FAE8A2E7E433F8E508A2E0A3
:1008E300E433282A2B2C2D2E64067038EF60141461
:1008F300601814601B14601C14601D14601E1460C7
:100903001F8021A2A0401D09801AA297401680F7DC
:10091300A29680F8A29580F4A29480F0A29380EC32
:10092300A29250E302075DE9C394045007E942BE73
:100933007587012275870022C0E074F2120214C287
:10094300C7790412092A0205A574F712016E740906
:10095300120162E0FEA3E0FFEAF8EBF980188C8253
:100963008D83E088828983F0A3A882A9838C828DFA
:1009730083A3AC82AD838E088F09E50824FF1EE5AF
:0F0983000934FFFFE508450970D47F020201D453
:04000005000000D324
:00000001FF
