:020000040000FA
:030000000200D328
:03002B00020A9D29
:030033000207C5FC
:03006B000206FD8D
:03007B0002076613
:100083000206B800000080FB1200E2B90003020080
:10009300CDE4900101783179028002F0A3D8FCD934
:1000A300FA900231AA82AB839000E5781A79018035
:1000B30015E493A3AC82AD838A828B83F0A3AA82D7
:1000C300AB838C828D83D8E9D9E71208A01200860E
:1000D30075D0007581BF75100175110102008B7910
:1000E3000122FF0000000000000000000000313288
:1000F300330D0A0000000000000100601608080824
:10010300C6C313C618C613C618C613C618C613C665
:10011300D5E0EA227009080808226016181818C6E4
:10012300C333C608C633C608C633C608C633C6D5E6
:10013300E0EA22E026F608A3E036F608A3E036F666
:1001430008A3E036F622E647F60809E647F608096B
:10015300E647F60809E647F622E0FAA3E0FBA3E048
:10016300FCA3E0FD22EAF0A3EBF0A3ECF0A3EDF097
:1001730022700422600D18C6C333C608C633C6D521
:10018300E0F41822E4732510C582C0E0E51134FFC2
:10019300C583C0E0E510C3958224F910AF088583B9
:1001A300118582108008858311858210D2AFCEF02D
:1001B300A3E520F0A37808E608F0A3DEFAEFF0A3A6
:1001C300E58124FBF8E608F0A3E608F0A30808E6B7
:1001D30008F0A3E608F0A315811581D0E0FED0E076
:1001E300F815811581E8C0E0EEC0E0228511838512
:1001F3001082E0A3FEE0A3F5207808E0A3F608DF71
:10020300FAE0A3FFE0A3C0E0E0A3C0E0E0A3C0E006
:10021300E0A3C0E010AF08858210858311800885B4
:100223008210858311D2AFD083D08222C0D0251013
:10023300C582C0E0E51134FFC583C0E0E510C39576
:100243008224F310AF08858311858210800885838B
:1002530011858210D2AFC8F0A3E9F0A3EAF0A3EBB3
:10026300F0A37908E709F0A3D8FAECF0A3EDF0A323
:10027300EEF0A3EFF0A3D0E0F0A3D0E0F0A3D0E042
:10028300F0A3E520F0A3E5F0F0A322851183851008
:1002930082E0C0E0A3E0F9A3E0FAA3E0FBA37808BF
:1002A300E0F608A3DFFAE0FCA3E0FDA3E0FEA3E091
:1002B300FFA3E0C0E0A3E0C0E0A3E0F5D0A3E0F536
:1002C30020A3E0A3F5F010AF088583118582108089
:1002D30008858311858210D2AFD082D083D0E0F815
:1002E300D0E032C082C083120698D2AF79017A7D02
:1002F3007B0112067D90017DE0C2E7F06405703D4D
:1003030079057A7E7B0112067DA3E0A2E55004D233
:10031300F08002C2F0A2F0E433900239F09001823F
:10032300E0A2E740030203C7900180E0F8900101D7
:10033300E06860030203C7A374010203C6E024F567
:10034300900236F090017DE0F97A7E7B0112067D02
:10035300A3E0A2E55004D2F08002C2F0A2F0E4339D
:10036300900239F0900185120557900232E8F0A30C
:10037300E9F09002377487F0A37401F0900236E03D
:10038300F83395E0F9748728F8740139F98882897C
:1003930083E090023AF088828983A3E0A2E7501CAD
:1003A300900231E0F8900180E068601090017EE0F7
:1003B30054DF6441700690023B7401F0900180E0C9
:1003C300900231F0C2AF1206A8020693C082C08326
:1003D3008A828B83120631E9640170047901807586
:1003E300C2AFA882A983900108E8F0A3E9F09002C4
:1003F30037E4F0A3F090010304F090024212015C91
:1004030090010412016875F005900108120759A3C1
:10041300A3A3A3E0A424D490618FF0900109120751
:1004230060120557E8906174F0E9A3F0900108E0C9
:10043300F8A312054EE8906172F0E9A3F0E5A8F87D
:10044300C2AF9001FD74E6F0A37402F0E8A2E79254
:10045300AFD2AF790002069374F6120189EAFEEB7C
:10046300FF8C088D09890A900103E0700675E1ECA1
:1004730075E1E3E9C394674003750A67906193E00C
:10048300542270F8120698740B250A90010AF01290
:10049300055D90010B6004746180027441F0A374E4
:1004A30088F0900101E090010DF090010912054ED2
:1004B30090010EE8F0A3E9F0A3EEF0A3EFF09001B2
:1004C30008120759120557900112E8F0A3E9F07AD0
:1004D3000080218A82A882E50828F582E509340094
:1004E300F583E0C0E0741428F58274013400F583C9
:1004F300D0E0F00AEAC3950A40D9740A250AF97ACA
:100503000A7B011206541206A875E1E9E591A2E1FE
:1005130050FA7591FD12055D600F900102E4F07AC7
:100523004A7B021205DFE0600479008002790190C2
:100533000103E0700675E1EF75E1ECE9A2E0400626
:10054300900101E004F07F030201EF120760A3A30F
:1005530012055722E0F8A3E0F92290010812075D83
:10056300A3A3A3A3A3E022E5C65480F853BEFBE5EF
:100573009DA2E550FAE59DA2E240F4007401697082
:1005830007744948F5C68005E9700288C6E5C6F8D0
:10059300E59E6870FB43BE0422E9F8E59EA2E640AF
:1005A30003790122E8700553C67F800874016870DF
:1005B3000343C680E5C6F9E59E6970FB790022799D
:1005C3000012059CE96010790112056A7900120591
:1005D3009CE960031206EA790002056AEBC313FB88
:1005E300EA13FAEAF8EBF9E824FFFAE934FFFBE847
:1005F300496013000000000000000000000000003C
:100603000000000080DD2274F8120189EAFEEBFF8E
:10061300EEF8EFF9E824FFFEE934FFFFE84960094B
:100623007AE87B031205DF80E77F010201EFC082D6
:10063300C083906189E04460F09061FA7409F0909E
:1006430061B27415F09061AEE4F01206A8790080EF
:100653003F74F712018975E1EE7591FD7800801002
:100663008808EA2508F582EB3400F583E0F5D9081C
:10067300E8C39940EB7F020201EFC082C083800D83
:10068300E5D98A828B83F0A3AA82AB8319E970F040
:10069300D083D08222C082C0839061A3E0C2E6F0FF
:1006A300539AFE80EBC082C0839061A3E0D2E6F050
:1006B300439A0180DBC0E074F212022FA2AFE4334D
:1006C300FEC2AFE5E9A2E650149001FD1207BF6038
:1006D30006120760120187759B0053E9BFEEA2E083
:1006E30092AF7F0102028E79011208387902120853
:1006F300387A327B0012060A80EDC0E074F11202F0
:100703002FC2C5E58960477E00750801750900EEB3
:100713007808120174AF08E5895F602BEEC333F8E4
:10072300E433F974FF28F58274011207BC6014EEF8
:10073300C333F8E433F974FF28F5827401120756C2
:10074300120187EFF452890EEEC3940840BB7F0277
:1007530002028E39F58312075D22E0F8A3E0F583E8
:10076300888222C0E074F112022FC2EBE58A60474F
:100773007E00750801750900EE7808120174AF0850
:10078300E58A5F602BEEC333F8E433F9740F28F581
:100793008274021207BC6014EEC333F8E433F974B5
:1007A3000F28F5827402120756120187EFF4528A5A
:1007B3000EEEC3940840BB809539F583120557E8C4
:1007C3004922C0E074F112022FC2E8E58B60477E34
:1007D30000750801750900EE7808120174AF08E589
:1007E3008B5F602BEEC333F8E433F9741F28F58273
:1007F30074021207BC6014EEC333F8E433F9741FB8
:1008030028F5827402120756120187EFF4528B0EF9
:10081300EEC3940540BB020751E91460041460045D
:1008230022D29122D28022E914600414600422C2ED
:100833009122C28022E914600414600522639002AD
:10084300226380012274F8120189E9FE9002297063
:100853000874EFF0A374BE80067420F0A37425F02F
:10086300A37407F0A37420F0A37419F0A37401F028
:100873007A297B021203CFE9640170031206EAEEC0
:10088300900103700B7401F075E1EC75E1E38008EE
:10089300E4F075E1EF75E1EC7F010201EF1205C2AF
:1008A30043FE02D29143FD01D28053F4FE53FEFE78
:1008B30043F60175FDFF75FE0275FF00D291D280EC
:1008C300D2AF759700759600759500D2ADC2C7D2A9
:1008D300AF120631E9640170031206EA79011208C6
:1008E3004812099DE97005790212082A75FD017500
:1008F300FE0275FF0079057C3D7D027AEF7BBE1217
:10090300045BE9701190022FE02401F0A3E03400AE
:10091300F0790112082A7AF47B0112060A7901128E
:10092300081CE595F50CE596F508E4F50DF50EF5CF
:100933000FF509F50AF50B74087808120117780CFE
:100943007908120149859708E4F5097410780812AB
:100953000117780C7908120149900246780C1201AC
:1009630036850C08850D09850E0A850F0B741078E2
:10097300081200FEE508F597850D09E509F596E5EA
:100983000CF5957902120A8C1205C27A057B0012C6
:10099300060A79011208480208F8EEC0E07E00D288
:1009A30081D282D283D284D285D286D287EE602A44
:1009B30014602314601C14601514600E1460071473
:1009C300701AC2878016C2868012C285800EC284C6
:1009D300800AC2838006C2828002C281EEF91209B4
:1009E300FDE960070EEEC3940740B474076E70040C
:1009F300790180027900D0E0FE2274F8120189E9BE
:100A0300FF7900C39408507EE5A0F508E590F8E56A
:100A130090FAE590FBE590FCE590FDA292E433FEAD
:100A2300EDA2E3E433FDECA2E4E433FCEBA2E5E462
:100A330033FBEAA2E6E433FAE8A2E7E433F8E50895
:100A4300A2E0E433282A2B2C2D2E64067038EF60A5
:100A53001414601814601B14601C14601D14601EB1
:100A630014601F8021A2A0401D09801AA29740167E
:100A730080F7A29680F8A29580F4A29480F0A293C6
:100A830080ECA29250E302089BE9C394045007E967
:100A930042BE7587012275870022C0E074F21202FC
:0B0AA3002FC2C77904120A8C0206E57E
:04000005000000D324
:00000001FF
